:020000040800F2
:1000000000000220A16C00084D0F00084F0F0008EF
:10001000510F0008530F0008550F000800000000A2
:10002000000000000000000000000000570F000862
:10003000590F0008000000005B0F00085D0F00086A
:10004000F16C0008F16C0008F16C0008F16C00081C
:10005000F16C0008F16C0008F16C0008F16C00080C
:10006000F16C0008F16C0008F16C0008F16C0008FC
:10007000F16C0008F16C0008F16C0008F16C0008EC
:10008000F16C0008F16C0008F16C0008650F0008C5
:10009000750F0008F16C0008F16C0008F16C0008A5
:1000A000F16C0008F16C0008F16C0008F16C0008BC
:1000B000F16C0008F16C0008F16C0008F16C0008AC
:1000C000F16C0008850F0008950F0008F16C00081E
:1000D000F16C0008A50F0008F16C0008F16C000835
:1000E000F16C0008F16C0008F16C0008F16C00087C
:1000F000F16C0008F16C0008F16C0008F16C00086C
:10010000F16C0008F16C0008F16C0008F16C00085B
:10011000F16C0008F16C0008F16C0008F16C00084B
:10012000F16C0008F16C0008F16C0008F16C00083B
:10013000F16C0008F16C0008F16C0008F16C00082B
:10014000F16C0008F16C0008F16C0008B50F0008B4
:10015000F16C0008F16C0008F16C0008F16C00080B
:10016000F16C0008F16C0008F16C0008F16C0008FB
:10017000F16C0008F16C0008F16C00080000000050
:08018000F16C0008F16C0008AD
:1001900001F0FF01102A2BDB10F0070F08D010F838
:1001A000013B013A8B422DD010F0070F42B3F6D13C
:1001B000F0B441EA012141EA014122F007047FF055
:1001C00000070023F0E80256083C85EA010586EAAC
:1001D000010685FA47F5A3FA87F586FA47F6A5FAE8
:1001E00087F68EB9EED1F0BC01F0FF0102F00702F4
:1001F00032B110F8013B013A83EA010313B1F8D19F
:100200000020704701387047002D06BF354603387F
:10021000073815F0010F07D1013015F4807F02BFB8
:10022000013015F4C03F0130F0BC0138704700BF09
:1002300081F0004102E000BF83F0004330B54FEA97
:1002400041044FEA430594EA050F08BF90EA020F04
:100250001FBF54EA000C55EA020C7FEA645C7FEA97
:10026000655C00F0E2804FEA5454D4EB5555B8BFBA
:100270006D420CDD2C4480EA020281EA030382EA2B
:10028000000083EA010180EA020281EA0303362DBD
:1002900088BF30BD11F0004F4FEA01314FF4801C90
:1002A0004CEA113102D0404261EB410113F0004FA2
:1002B0004FEA03334CEA133302D0524263EB430359
:1002C00094EA050F00F0A780A4F10104D5F1200EF7
:1002D0000DDB02FA0EFC22FA05F2801841F1000152
:1002E00003FA0EF2801843FA05F359410EE0A5F126
:1002F00020050EF1200E012A03FA0EFC28BF4CF057
:10030000020C43FA05F3C01851EBE37101F000450C
:1003100007D54FF0000EDCF1000C7EEB00006EEB19
:100320000101B1F5801F1BD3B1F5001F0CD34908A3
:100330005FEA30004FEA3C0C04F101044FEA4452FA
:1003400012F5800F80F09A80BCF1004F08BF5FEA81
:10035000500C50F1000041EB045141EA050130BD61
:100360005FEA4C0C404141EB0101013C28BFB1F573
:10037000801FE9D291F0000F04BF01460020B1FABE
:1003800081F308BF2033A3F10B03B3F120020CDA91
:100390000C3208DD02F1140CC2F10C0201FA0CF06F
:1003A00021FA02F10CE002F11402D8BFC2F1200CD4
:1003B00001FA02F120FA0CFCDCBF41EA0C0190408A
:1003C000E41AA2BF01EB0451294330BD6FEA0404D3
:1003D0001F3C1CDA0C340EDC04F11404C4F12002BE
:1003E00020FA04F001FA02F340EA030021FA04F3D0
:1003F00045EA030130BDC4F10C04C4F1200220FA27
:1004000002F001FA04F340EA0300294630BD21FA64
:1004100004F0294630BD94F0000F83F4801306BF2A
:1004200081F480110134013D4EE77FEA645C18BF1E
:100430007FEA655C29D094EA050F08BF90EA020FB5
:1004400005D054EA000C04BF1946104630BD91EAAD
:10045000030F1EBF0021002030BD5FEA545C05D1B0
:100460004000494128BF41F0004130BD14F58004EF
:100470003CBF01F5801130BD01F0004545F0FE4163
:1004800041F470014FF0000030BD7FEA645C1ABF98
:10049000194610467FEA655C1CBF0B46024650EACF
:1004A000013406BF52EA033591EA030F41F40021FB
:1004B00030BD00BF90F0000F04BF0021704730B581
:1004C0004FF4806404F132044FF000054FF0000156
:1004D00050E700BF90F0000F04BF0021704730B517
:1004E0004FF4806404F1320410F0004548BF4042EC
:1004F0004FF000013EE700BF42004FEAE2014FEA41
:1005000031014FEA02701FBF12F07F4393F07F4F1B
:1005100081F06051704732F07F4208BF704793F01E
:100520007F4F04BF41F40021704730B54FF4607431
:1005300001F0004521F000411CE700BF50EA010234
:1005400008BF704730B54FF000050AE050EA0102DD
:1005500008BF704730B511F0004502D5404261EB4D
:1005600041014FF4806404F132045FEA915C3FF48E
:10057000D8AE4FF003025FEADC0C18BF03325FEA2B
:10058000DC0C18BF033202EBDC02C2F1200300FADC
:1005900003FC20FA02F001FA03FE40EA0E0021FA01
:1005A00002F11444BDE600BF70B54FF0FF0C4CF4EF
:1005B000E06C1CEA11541DBF1CEA135594EA0C0FA1
:1005C00095EA0C0F00F0DEF82C4481EA030621EADC
:1005D0004C5123EA4C5350EA013518BF52EA033517
:1005E00041F4801143F4801338D0A0FB02CE4FF0C9
:1005F0000005E1FB02E506F00042E0FB03E54FF0F9
:100600000006E1FB03569CF0000F18BF4EF0010EF0
:10061000A4F1FF04B6F5007F64F5407404D25FEAEC
:100620004E0E6D4146EB060642EAC62141EA55519F
:100630004FEAC52040EA5E504FEACE2EB4F1FD0CE1
:1006400088BFBCF5E06F1ED8BEF1004F08BF5FEA5F
:10065000500E50F1000041EB045170BD06F0004611
:1006600046EA010140EA020081EA0301B4EB5C04BE
:10067000C2BFD4EB0C0541EA045170BD41F48011B6
:100680004FF0000E013C00F3AB8014F1360FDEBFDB
:10069000002001F0004170BDC4F10004203C35DAB7
:1006A0000C341BDC04F11404C4F1200500FA05F33A
:1006B00020FA04F001FA05F240EA020001F00042DB
:1006C00021F0004110EBD37021FA04F642EB060151
:1006D0005EEA430E08BF20EAD37070BDC4F10C047B
:1006E000C4F1200500FA04F320FA05F001FA04F23F
:1006F00040EA020001F0004110EBD37041F100012B
:100700005EEA430E08BF20EAD37070BDC4F1200535
:1007100000FA05F24EEA020E20FA04F301FA05F29D
:1007200043EA020321FA04F001F0004121FA04F245
:1007300020EA020000EBD3705EEA430E08BF20EA15
:10074000D37070BD94F0000F0FD101F0004640004F
:1007500041EB010111F4801F08BF013CF7D041EAD1
:10076000060195F0000F18BF704703F000465200D5
:1007700043EB030313F4801F08BF013DF7D043EAA6
:100780000603704794EA0C0F0CEA135518BF95EA5C
:100790000C0F0CD050EA410618BF52EA4306D1D1E3
:1007A00081EA030101F000414FF0000070BD50EA02
:1007B000410606BF1046194652EA430619D094EA8C
:1007C0000C0F02D150EA013613D195EA0C0F05D176
:1007D00052EA03361CBF104619460AD181EA0301CA
:1007E00001F0004141F0FE4141F470014FF0000082
:1007F00070BD41F0FE4141F4780170BD70B54FF01D
:10080000FF0C4CF4E06C1CEA11541DBF1CEA13559C
:1008100094EA0C0F95EA0C0F00F0A7F8A4EB05047E
:1008200081EA030E52EA03354FEA013100F0888075
:100830004FEA03334FF0805545EA131343EA12633E
:100840004FEA022245EA111545EA10654FEA0026F3
:100850000EF000419D4208BF964244F1FD0404F5AC
:10086000407402D25B084FEA3202B61A65EB030508
:100870005B084FEA32024FF480104FF4002CB6EBC5
:10088000020E75EB030E22BFB61A754640EA0C0045
:100890005B084FEA3202B6EB020E75EB030E22BF85
:1008A000B61A754640EA5C005B084FEA3202B6EBC6
:1008B000020E75EB030E22BFB61A754640EA9C0085
:1008C0005B084FEA3202B6EB020E75EB030E22BF55
:1008D000B61A754640EADC0055EA060E18D04FEA13
:1008E000051545EA16754FEA06164FEAC30343EAB3
:1008F00052734FEAC2025FEA1C1CC0D111F4801F80
:100900000BD141EA00014FF000004FF0004CB6E778
:1009100011F4801F04BF01430020B4F1FD0C88BF17
:10092000BCF5E06F3FF6AFAEB5EB030C04BFB6EB22
:10093000020C5FEA500C50F1000041EB045170BD15
:100940000EF0004E4EEA113114EB5C04C2BFD4EB42
:100950000C0541EA045170BD41F480114FF0000EC6
:10096000013C90E645EA060E8DE60CEA135594EA42
:100970000C0F08BF95EA0C0F3FF43BAF94EA0C0F45
:100980000AD150EA01347FF434AF95EA0C0F7FF4BA
:1009900025AF104619462CE795EA0C0F06D152EA0E
:1009A00003353FF4FDAE1046194622E750EA4106F2
:1009B00018BF52EA43067FF4C5AE50EA41047FF403
:1009C0000DAF52EA43057FF4EBAE12E74FEA410266
:1009D00012F5001215D211D56FF47873B3EB625291
:1009E00012D94FEAC12343F0004343EA505311F0B8
:1009F000004F23FA02F018BF404270474FF000004A
:100A0000704750EA013005D111F0004008BF6FF087
:100A1000004070474FF00000704700BF53B94AB91B
:100A2000002908BF00281CBF4FF0FF314FF0FF30F6
:100A300000F00CB8ADF1080C6DE904CE07F026F912
:100A4000DDF804E0DDE9022304B07047704700BF21
:100A500010B5054C237833B9044B13B10448AFF3F8
:100A600000800123237010BD7C01002000000000E5
:100A70002C7F000808B5034B1BB103490348AFF3B3
:100A8000008008BD00000000800100202C7F0008CD
:100A900030B52DED028B87B000230493ADF81430F0
:100AA00007E0304AD15C03F118026A4402F8081CDE
:100AB0000133052BF5DD9DF810309DF8111041EA4A
:100AC000032109B2284801809DF812309DF81320B7
:100AD00042EA032212B242809DF814409DF815307C
:100AE00043EA04231BB2838007EE901AF8EEE77AFC
:100AF000DFED1E6A87EEA67A1D4981ED007A07EECA
:100B0000902AF8EEE77A87EEA68A81ED018A07EE51
:100B1000903AF8EEE77AF2EE046AC7EEA68AC1EDE3
:100B2000028A17EE100AFFF7E7FC04460D4618EE9E
:100B3000900AFFF7E1FCCDE9020118EE100AFFF779
:100B4000DBFCCDE9000122462B460A4806F094F969
:100B500006220449084804F071F807B0BDEC028B86
:100B600030BD00BF88020020AC0100200000C84258
:100B7000A0010020447F0008100500202DE9F0416D
:100B800082B03F4B93ED027ADFED3E7A27EE277A73
:100B9000DFED3D6AC7EE267AFDEEE77A17EE902A82
:100BA00014B23A4E34801868FFF7A6FC0022384B86
:100BB000FFF744FB0022374BFFF7F6FC0022364BD1
:100BC000FFF71CFEFFF702FF7080DFF8E480D8F823
:100BD0000030324D6B602B6E4FF4005107EE904A9F
:100BE000B8EEE70A284698472B6B2D4C6360236EBE
:100BF0002C4FB7F9002000EE102A0021B8EEC00AF1
:100C000020469847D8F80430AB66D5F8C430B6F91A
:100C1000022000EE102A4FF40051B8EEC00A05F190
:100C200064009847D5F89430A366D4F8C430B7F977
:100C3000302000EE102A0021B8EEC00A04F1640052
:100C40009847D4ED0C7A94ED257ABDEEC77AFDEE87
:100C5000E77A0023009317EE102A12B217EE901ACB
:100C600009B2114800F01CFDB6F90220B98F0F48F7
:100C700006F002F9012003F041F902B0BDE8F0816D
:100C8000A0010020000000460000B443B401002091
:100C9000008066400000C04000807640C001002017
:100CA00058030020AC050020E8040020507F000815
:100CB000B801002072B6FEE700B595B030220021E1
:100CC00008A806F021FA00230393049305930693E2
:100CD00007930193204A116C41F080511164126C0A
:100CE00002F080520192019A02931C4B1A6842F45E
:100CF00080421A601B6803F480430293029B012325
:100D000008934FF48033099302230E934FF480022B
:100D10000F9206221092A822119212930723139386
:100D200008A802F095FB98B90F23039302230493BC
:100D3000002305934FF4A05306934FF48053079379
:100D4000052103A802F0D4FD20B915B05DF804FB1D
:100D5000FFF7B0FFFFF7AEFF003802400070004021
:100D60002DE9804885B003F09DF8FFF7A5FF00F05E
:100D700045F900F0A1F900F011FA00F073FA00F063
:100D8000BFFC5C4C204603F00FFA204600F0D4FB79
:100D90000221204603F059FB574E304600F0BEFBBF
:100DA000B56D9FED568A4FF4FA58CDF808800024AF
:100DB00001940094F0EE481A9FED511ADFED510AAC
:100DC000B0EE480A41F288334F4A1288012130467A
:100DD000A8474E4D284600F0A1FB02944FF47A69D3
:100DE000CDF804900094F0EE481A9FED491ADFED1B
:100DF000490AB0EE480A4FF496731A460121284674
:100E0000AF6DB847DFF840A1504600F087FB029471
:100E1000CDF804900094F8EE081A9FED3F1ADFED2C
:100E20003F0AB0EE480A4FF496731A460121504625
:100E3000DAF85870B84706F1640B584600F06EFBBC
:100E4000D6F8BC60CDF8088001940094F0EE481A02
:100E50009FED331ADFED330AB0EE480A41F28833D2
:100E6000294A128801215846B04705F164063046E8
:100E700000F054FBD5F8BC500294CDF804900094D7
:100E8000DFED291A9FED291ADFED290AB0EE480A95
:100E90004FF4FA731A4601213046A8470AF1640557
:100EA000284600F03BFBDAF8BC600294CDF80490D1
:100EB0000094F2EE041AB0EE481AF6EE000AB0EE14
:100EC000480A4FF496731A4601212846B04719483C
:100ED00006F03AF806221849184803F0AFFEFFF76B
:100EE0004DFE174A136801331360164A1368013325
:100EF0001360F4E7E804002058030020000000001D
:100F00001B742B3FDADC75420000002090020020A9
:100F10009052A23BC286AF3FA69B44BB666666BFAB
:100F2000FD3A424090658040E96A3241419A313C45
:100F300041BCA23F587F0008880200201005002015
:100F40009C01002098010020C0010020FEE7FEE780
:100F5000FEE7FEE7FEE770477047704708B502F00E
:100F6000BBFF08BD08B5024803F08CFA08BD00BFFE
:100F7000E804002008B5024803F084FA08BD00BF69
:100F8000E804002008B5024804F08CFB08BD00BF4F
:100F90001005002008B5024804F054FC08BD00BF4D
:100FA0001005002008B5024804F04EFE08BD00BF41
:100FB0006405002008B5024801F001F908BD00BF32
:100FC0005C0B002082B0002100910B4B5A6C42F464
:100FD00080425A645A6C02F480420092009A019155
:100FE0001A6C42F080521A641B6C03F08053019318
:100FF000019B02B0704700BF0038024030B58DB091
:1010000000240794089409940A940B940194284BA3
:101010001A6B42F001021A631A6B02F0010201928C
:10102000019A02941A6B42F002021A631A6B02F0E0
:1010300002020292029A03941A6B42F008021A63A7
:101040001A6B02F008020392039A04941A6B42F09E
:1010500004021A631A6B02F004020492049A0594C3
:101060001A6B42F020021A631A6B02F020020592FA
:10107000059A06941A6B42F080021A631B6B03F008
:1010800080030693069B0B4D01224FF48061284696
:1010900002F0FAFD4FF4806307930123089309944B
:1010A0000A9407A9284602F0F9FC0DB030BD00BF34
:1010B00000380240001C024008B50E480E4B036089
:1010C0000323436000238360C3604FF40022026166
:1010D0004FF4401242610376012242768376C37652
:1010E0000377437702F01EFF00B908BDFFF7E2FD6A
:1010F000FBE700BFE80400200064004010B588B0A2
:1011000000230393049305930693079302681C4BF3
:101110009A4201D008B010BD0024019403F5EA33CF
:101120001A6C42F000721A641A6C02F0007201929A
:10113000019A02941A6B42F008021A631B6B03F0C7
:1011400008030293029B0323039302220492069353
:101150000923079303A90B4802F0A0FC224621466D
:10116000132002F047FE132002F054FE22462146CF
:10117000142002F03FFE142002F04CFECAE700BF2C
:1011800000640040000C0240034B1A68536943F0AE
:1011900002035361704700BFE804002008B50B4804
:1011A0000B4B03600B4B4360002383603422C2600F
:1011B0004FF48042026143618361C361036203F0C3
:1011C0005FFC00B908BDFFF775FDFBE710050020C7
:1011D00000580040A086010030B589B00023039379
:1011E000049305930693079302681B4B9A4201D020
:1011F00009B030BD00240194184D2B6B43F020033F
:101200002B632B6B03F020030193019B03230393B8
:101210001222049206930423079303A9104802F0B4
:101220003DFC02942B6C43F480032B642B6C03F481
:1012300080030293029B22462146212002F0DAFD20
:10124000212002F0E7FD22462146222002F0D2FDB5
:10125000222002F0DFFDCBE70058004000380240BA
:101260000014024008B50A480A4B03604FF4E1330A
:10127000436000238360C36003610C224261836189
:10128000C36104F027FC00B908BDFFF713FDFBE7BD
:101290006405002000100140F0B589B000230393DD
:1012A0000493059306930793026803F1804303F5C3
:1012B00088339A4201D009B0F0BD0024009403F5B0
:1012C00094335A6C42F010025A645A6C02F01002C5
:1012D0000092009A01941A6B42F002021A631A6B90
:1012E00002F002020192019A02941A6B42F001028A
:1012F0001A631B6B03F001030293029B8023039389
:1013000002270497032606960725079503A90B488D
:1013100002F0C4FB4FF40073039304970594069600
:10132000079503A9064802F0B9FB2246214625206D
:1013300002F060FD252002F06DFDBCE700040240D4
:101340000000024007EE902A07EE103A0170BDF847
:10135000003006EE903AF8EE666AC0ED116A80ED54
:10136000100AB8EE477A80ED0F7AF8EE677AC0ED92
:101370000E7ABDF9043007EE903AF8EEE77AC0ED48
:10138000127ABDF9083007EE903AF8EEE77AC0ED30
:10139000017AC0ED030A80ED041AC0ED051A00239E
:1013A0000363704780ED030AC0ED040A80ED051A5F
:1013B0007047401A02EBD2735910B0EB630F03DC95
:1013C0004942884202DB7047801A70471044FAE7AE
:1013D00038B52DED048B0446B0EE408A0D46C36C43
:1013E000036502F085FDE064236DC01A84F85400A3
:1013F00084ED068A94ED079A84ED089AD4ED0C8A60
:10140000C4ED0D8A002D6ED1D4ED017A77EEC87A45
:10141000C4ED077A94ED077AB5EEC07AF1EE10FAD2
:1014200075DDF0EE477AD4ED106AF4EEE76AF1EE7E
:1014300010FA53D5D4ED036A67EE266AC4ED096A43
:1014400094ED0A6AD4ED047A67EE277A36EE276ABD
:1014500084ED0A6AD4ED057A37EE497A67EE877A29
:10146000C4ED0B7A94ED0F7AB4EEC76AF1EE10FA80
:1014700001DD84ED0A7A94ED0A6AB1EE477AB4EEA2
:10148000C76AF1EE10FA01D584ED0A7A94ED0A7A72
:1014900076EE876A77EEA67AC4ED0C7A9FED1D7A18
:1014A00067EE877A9FED1C7A68EE878A77EEA87AD6
:1014B000C4ED0C7A94ED0E7AF4EEC77AF1EE10FAE0
:1014C00001DD84ED0C7AD4ED0C7AB1EE477AF4EEBE
:1014D000C77AF1EE10FA01D584ED0C7A94ED0C0A7E
:1014E000BDEC048B38BDD4ED017A2A46BDEEC87A36
:1014F00017EE101AFDEEE77A17EE900AFFF759FF84
:1015000007EE900AF8EEE77AC4ED077A82E7F1EE8B
:10151000477A88E73333333F9A99993E034B836583
:10152000034BC365034B0366704700BF45130008B8
:10153000A5130008D113000800B58BB00023069353
:1015400001220792009301930293039304930E23C5
:1015500005930892694602F08BFD0BB05DF804FB21
:1015600070B58AB00546002440F201230393049429
:10157000059406940823079302F0BAFC434B1B68BA
:10158000C01AB0F5FA7F0ED801AB03AA0021284695
:1015900002F0B6FE039BA3F20523032B14D8DFE869
:1015A00003F0120C0E104FF48061394802F072FB08
:1015B00002F09EFC354B1860E6E7012404E00224AB
:1015C00002E0032400E000242046324D04EB4401F5
:1015D0004FEA011E05EB0111B1F80CC0A1F80EC0D5
:1015E0009DF804209DF8053043EA02238B819DF885
:1015F00006609DF8072042EA062225F80E209DF895
:1016000008509DF8092042EA052207EE902AF8EEDC
:10161000E77AB1EE047A67EE877A9FED1F7A67EE7C
:10162000877AC1ED017A9DF80A208A72A3EB0C0C2F
:10163000BCF5805F1EDD04EB4402164901EB02128B
:10164000516901395161134A00EB400102EB01116C
:101650004C6903EB4433098A5B1A00EB400002EB50
:10166000001293610D4B1A68536943F002035361F2
:101670000AB070BD1CF5805FE5DA04EB4401054A51
:1016800002EB0112516901315161DCE7A80500202C
:10169000001C0240AC05002000008038E804002057
:1016A00030B58BB0BDF938C00024019440F2FF156D
:1016B0000495059406940794082508958DF8244010
:1016C00041FA05F48DF808408DF8091042FA05F149
:1016D0008DF80A108DF80B2043FA05F28DF80C20D6
:1016E0008DF80D309DF939308DF80E308DF80FC022
:1016F00001AB0DEB050204A902F084FD0BB030BD77
:1017000008B500220B490C4804F0EAFB48B90B4924
:10171000094804F0FCFB38B9074804F012FC30B962
:1017200008BDFFF7C7FAF2E7FFF7C4FAF4E7FFF7DF
:10173000C1FAF5E7380000206C060020E800002020
:1017400012230B80004870472400002004230B80E4
:101750000048704720000020002393421ED200B5AD
:1017600010E00CF1370C01F813C000014FEA430CF4
:101770000CF1010C4FF0000E01F80CE00133DBB26C
:10178000934209D24FEA107CB0F1204FE9D20CF11C
:10179000300C01F813C0E8E75DF804FB7047000067
:1017A00038B50B4BD3F8100AD3F8144AD3F8183ACB
:1017B000C01800D138BD074D08222946FFF7CCFFDD
:1017C000042205F110012046FFF7C6FFF2E700BF33
:1017D0000070FF1F0600002008B51A230B80FFF7DA
:1017E000DFFF014808BD00BF0400002008B50A461D
:1017F00028B90549054805F0EEF8034808BD024937
:10180000024805F0E8F8F8E7480900207C7F000866
:1018100010B50A46034C2146034805F0DCF8204683
:1018200010BD00BF48090020947F000808B50A4693
:1018300028B90549054805F0CEF8034808BD024916
:10184000024805F0C8F8F8E748090020A87F00081A
:1018500008B50A4628B90549054805F0BCF803480B
:1018600008BD0249024805F0B6F8F8E7480900202B
:10187000B47F000830B589B0002303930493059327
:10188000069307930368B3F1A04F01D009B030BDB0
:1018900000250195164C236B43F001032363236B52
:1018A00003F001030193019B4FF4C0530393022300
:1018B0000493032306930A23079303A90D4802F018
:1018C000EDF8636B43F0800363630295636C43F44C
:1018D00080436364636C03F480430293029B2A4653
:1018E0002946432002F086FA432002F093FACDE71E
:1018F000003802400000024008B500F2C441D0F8B0
:10190000080504F034FB08BD08B501EBC10300EB8A
:101910008303D3F88C22D0F8080504F0F5FB08BD4A
:1019200008B501EBC10300EB8303DA6CD0F80805BE
:1019300004F04CFC08BD08B5D0F8080504F08FFB96
:1019400008BD10B50446C3683BB1022B01D101218B
:1019500004E0FFF7AFF9012100E00021D4F8080509
:1019600004F063FBD4F8080504F02DFB10BD000063
:1019700010B50446D0F8080504F05AFB2268D2F8E6
:10198000003E43F00103C2F8003E236A23B1034A3C
:10199000136943F00603136110BD00BF00ED00E0C2
:1019A00008B5D0F8080504F04DFB08BD08B5D0F81F
:1019B000080504F07CFB08BD08B5D0F8080504F064
:1019C0005FFB08BD08B5D0F8080504F087FB08BD2B
:1019D00008B5D0F8080504F083FB08BD02780AB109
:1019E0000020704710B503461548C0F80835C3F805
:1019F000C8024FF0A0430360042343600222C26088
:101A0000002303618261C36103624362C3620363B3
:101A100000F0EAF880B90A4C8021204600F0D9FE97
:101A200040220021204600F0AEFE80220121204607
:101A300000F0A9FE002010BDFFF73CF9EBE700BF66
:101A40005C0B0020D0F8C83211F0800F08D101F0F3
:101A50007F0101EBC10103EB810393F87E02704724
:101A600001F07F0101EBC10103EB810393F83E001C
:101A70007047000000487047480B0020704703285B
:101A800005D8DFE800F005040205012070470320B7
:101A9000704708B5D0F8C80200F03DF9FFF7EFFF36
:101AA00008BD08B594461A466346D0F8C80200F04F
:101AB00011FAFFF7E4FF08BD08B5D0F8C80200F03E
:101AC0004EFAFFF7DCFF08BD08B5D0F8C80200F0F9
:101AD000DDFAFFF7D4FF08BD08B5D0F8C80200F062
:101AE00019FBFFF7CCFF08BD08B5D0F8C80200F01D
:101AF000DDF9FFF7C4FF08BD08B5D0F8C80200F053
:101B000096FAFFF7BCFF08BD08B5D0F8C80200F090
:101B10005FFAFFF7B4FF08BD2DE9F04383B0D0F8BA
:101B2000008001EBC10300EB8303DA6D5B6D9A4229
:101B300054D807460C469B1A01EBC10200EB820207
:101B4000926C9A4200D31A4602F103094FEA9909AE
:101B500015E006F103094FEA990904EBC40507EB08
:101B60008505E96C3B7C0093B3B2E2B2404601F0DC
:101B7000F8F9EB6C3344EB64EB6D3344EB6508EB45
:101B8000441303F510639B699BB24B4512D304EBDE
:101B9000C40307EB8303DA6D5B6D9A420AD24BB143
:101BA0009B1A04EBC40207EB8202966C9E42D0D3D0
:101BB0001E46CEE704EBC40307EB83077A6DFB6D8B
:101BC0009A420FD804F00F040122A240D8F834380A
:101BD00023EA0203C8F83438002000E0012003B0F3
:101BE000BDE8F0830020FAE770B58AB0002800F065
:101BF00090800546046890F8BD343BB3032385F814
:101C0000BD34E36B13F4807F01D100232B6128687E
:101C100000F0CAFE2C4654F8106BEC460FCCACE832
:101C20000F000FCCACE80F0094E803008CE8030031
:101C30002B1D0ECB304600F0F9FD044658B10223AF
:101C400085F8BD34012420460AB070BD80F8BC344C
:101C5000FFF710FED2E70021286801F08AFB234637
:101C600016E003EBC30205EB8202012182F83D106E
:101C700082F83C30A2F84430002182F84010916490
:101C8000D16403EBC30205EB820251650133DBB281
:101C900069688B42E5D316E004EBC40305EB8303CC
:101CA000002283F87D2283F87C4283F88022C3F8E7
:101CB0008822C3F88C2204EBC40305EB8303C3F82A
:101CC00094220134E4B2A142E6D82C4654F8106BB9
:101CD000EC460FCCACE80F000FCCACE80F0094E85A
:101CE00003008CE803002B1D0ECB304600F0B8FE3D
:101CF000044620B1022385F8BD340124A3E7002364
:101D000085F83830012385F8BD34286801F0F0FAF1
:101D100099E7012497E7026890F8BC34012B19D0A9
:101D200010B50446012380F8BC34836A012B09D026
:101D3000206800F033FE206801F0CCFA002084F81F
:101D4000BC0410BD8369012BF2D0936B43F4803344
:101D50009363EDE70220704770B504460D460068B6
:101D6000066C00EB411303F530639A682169012981
:101D700011D038498E4256D03DB905EBC50304EB6E
:101D80008303D3F89432002B5ED0E9B22046FFF7EC
:101D9000BBFD002070BD12F0080F09D02E498E4205
:101DA000F7D912F4004FF4D04FF400429A60F0E7F4
:101DB00012F0200F02D020229A60EAE712F0280FDA
:101DC000E7D125498E4206D912F4004F03D04FF4D3
:101DD00000429A60DDE705EBC50204EB8202D2F80F
:101DE00098121B69C3F31203CB1AC2F89C327DB957
:101DF00005EBC50204EB8202D2F894226AB105EB2E
:101E0000C50204EB8202D2F88C121944C2F88C127B
:101E1000E9B22046FFF778FDBBE704F2C442012196
:101E200001F0E6FAF4E712F4004F03D04FF4004259
:101E30009A60AEE712F0200F01D020229A60E9B23A
:101E40002046FFF761FDA4E704F2C442002101F03F
:101E5000CFFA9AE70A31544F0A30544F38B5044646
:101E600003681D6C03EB4113D3F8081B0E4A95421F
:101E700007D903F5306311F4004F02D04FF400424C
:101E80009A602046FFF738FD074B9D4202D923692F
:101E9000012B01D0002038BD04F2C442012120688A
:101EA00001F0A6FAF6E700BF0A30544F90F8BC34B0
:101EB000012B0DD010B50446012380F8BC3480F806
:101EC0003810006801F0F6F9002084F8BC0410BD59
:101ED0000220704738B505468C4611F0800F29D195
:101EE00001F00F0E0EEBCE04A40004F51E740444A2
:101EF000211D0EEBCE0E00EB8E0E00208EF87D0223
:101F00000CF00F0C81F800C0CA600B714A780AB15E
:101F1000A1F808C0022B1DD095F8BC34012B1CD0B1
:101F2000012385F8BC34286800F073FE002085F892
:101F3000BC0438BD01F00F0000EBC001890038314E
:101F40002944043100EBC00005EB8000012480F837
:101F50003D40D5E700234B71DEE70220E9E710B5ED
:101F600004460A4611F0800F20D101F00F0000EB6B
:101F7000C0039B0003F51E732344191D00EBC00032
:101F800004EB8000002380F87D3202F00F020A701B
:101F900094F8BC34012B19D0012384F8BC34206898
:101FA00000F084FE002084F8BC0410BD01F00F0096
:101FB00000EBC0039B0038332344191D00EBC00025
:101FC00004EB8000012380F83D30DEE70220ECE7DF
:101FD00010B501F00F0404EBC401890001F51E7176
:101FE0000144043104EBC40C00EB8C0CCCF88C22C3
:101FF000CCF894320023CCF89C328CF87D328CF8EB
:102000007C420369012B06D064B9DAB2006800F0A3
:10201000BDFE002010BD04EBC40C00EB8C0CCCF812
:102020009022F1E7DAB2006800F0B2FFF1E710B5F4
:1020300001F00F0404EBC40189003831014404317C
:1020400004EBC40C00EB8C0CCCF84C20CCF85430D6
:102050000023CCF85C3001238CF83D308CF83C40F8
:102060000369012B06D064B9DAB2006800F08EFE75
:10207000002010BD04EBC40C00EB8C0CCCF85020FD
:10208000F1E7DAB2006800F083FFF1E738B501F05C
:102090000F054268954239D804460B4611F0800F6F
:1020A0001FD101EBC101890001F51E71014404310A
:1020B00003EBC30300EB8303002283F87D2201239B
:1020C0008B700D7094F8BC34012B21D0012384F85F
:1020D000BC34206801F093F88DB1002084F8BC0472
:1020E00038BD05EBC501890038310144043105EBE9
:1020F000C50300EB8303012283F83D20DFE704F2F0
:10210000C442217C206801F073F9E6E70120E7E78B
:102110000220E5E701F00F034268934231D810B581
:10212000044611F0800F1ED103EBC301890001F5B5
:102130001E710144043103EBC30200EB8202002054
:1021400082F87D0200228A700B7094F8BC34012B57
:1021500019D0012384F8BC34206801F07DF80020F8
:1021600084F8BC0410BD03EBC3018900383101447D
:10217000043103EBC30200EB8202012082F83D0030
:10218000E0E7012070470220ECE708B511F0800F6E
:102190000CD101F00F0101EBC101890001F51E71A5
:1021A00001440431006800F07DFE08BD01F00F011C
:1021B00001EBC1018900383101440431F2E72DE916
:1021C000F04F83B004460568284601F0CEF810B100
:1021D00003B0BDE8F08F0646206801F097F80028AC
:1021E000F6D005F50067BB68C3F30D23C4F8FC34D3
:1021F000206801F08BF810F0020F04D022685369B8
:1022000003F002035361206801F080F810F0100F12
:1022100015D02268936923F010039361D5F82080CC
:1022200008F00F0908F4F013B3F5802F4CD0B3F584
:10223000402F6FD02268936943F0100393612068A8
:1022400001F064F810F4002F76D1206801F05EF8F8
:1022500010F4802F40F0E080206801F057F800284B
:10226000C0F26381206801F051F810F4006F09D0CA
:10227000BB6813F0010F40F070812268536903F4CA
:1022800000635361206801F041F810F4805F40F072
:102290006881206801F03AF810F4005F40F0B581E1
:1022A000206801F033F810F0080F40F0C681206874
:1022B00001F02CF810F0800F00F0D981AB6923F009
:1022C0008003AB610126C2E147F6F07318EA030F01
:1022D000B0D04FEA181A4FEAC903019309EBC90BB2
:1022E00004EB8B0BC8F30A12DBF88C12284600F0C3
:1022F00063FFDBF88C32CAF30A0A5344CBF88C3202
:10230000DBF89C32019A4A4404EB82025344C2F83F
:102310009C328FE7082204F2C441284600F04CFFAB
:1023200009EBC90304EB8303D3F89C22C8F30A1812
:102330004244C3F89C227DE7206800F0EBFF804612
:10234000B14635E005EB49130122C3F8082B494695
:102350002046FFF701FD3CE005EB49130822C3F8D6
:10236000082B49462046FFF779FD35E009EBC90304
:1023700004EB830393F87F32012B41D005EB491323
:102380000222C3F8082B1AF0200F04D005EB4913E2
:102390002022C3F8082B1AF4005F05D005EB49137F
:1023A0004FF40052C3F8082B09F101094FEA58080D
:1023B000B8F1000F3FF449AF18F0010FF4D05FFA05
:1023C00089FB5946206800F0B5FF824610F0010FE6
:1023D000B8D11AF0080FBFD11AF0100F04D005EBD6
:1023E00049131022C3F8082B1AF0020FCBD06B69E7
:1023F00013F0800FBAD07B6843F480637B60B5E74D
:1024000009EBC90304EB8303002283F87F225946BA
:102410002046FFF7CBFAB1E7206800F083FF804643
:10242000B14625E059462046FFF77AFA1AF0080F20
:1024300004D005EB49130822C3F808291AF0100F3D
:1024400004D005EB49131022C3F808291AF0400FF5
:1024500004D005EB49134022C3F808291AF0020FF3
:1024600040D11AF0800F5BD109F101094FEA5808F9
:10247000B8F1000F3FF4F0AE18F0010FF4D05FFA9E
:1024800089FB5946206800F05EFF824610F0010F7C
:10249000CCD009F00F02012101FA02F27B6B23EA92
:1024A00002037B6305EB4913C3F8081923698B42C8
:1024B000B8D109EBC90304EB8303DA6C996C0A44C5
:1024C000DA64B9F1000FADD109EBC90304EB830362
:1024D0005B6D002BA6D104F2C4420121206800F0FC
:1024E00087FF9FE74946284600F064FA09EBC903D5
:1024F00004EB830393F83F30012B05D005EB491320
:102500000222C3F80829ACE709EBC90304EB8303F3
:10251000002283F83F2059462046FFF74DFAEDE7A9
:1025200049462046FFF7F8FA9EE77B6823F001034F
:102530007B6094F8F434012B08D02046FFF730FA82
:102540002268536903F0004353618BE6002184F84D
:10255000F414204600F041F9F2E72046FFF708FAAC
:102560008BE67B6823F001037B601021206800F07C
:1025700021FA1AE005EB46134FF67F31C3F808192C
:10258000D3F8002922F40012C3F80029C3F8081B6D
:10259000D3F8002B22F40012C3F8002BD3F8002B41
:1025A00042F00062C3F8002B01366368B342E1D801
:1025B000FB6943F00113FB61236BDBB1D7F8843077
:1025C00043F00B03C7F884307B6C43F00B037B6450
:1025D000D5F8003823F4FE63C5F8003804F2C4428D
:1025E000217C206800F004FF2268536903F48053C3
:1025F00053614EE67B6943F4005343F02B037B6148
:102600003B6943F00B033B61E2E7206800F0E2FE28
:10261000206800F0EDFAE060266801F019FA014642
:10262000227B304600F048F92046FFF78AF92268FD
:10263000536903F40053536132E62046FFF77BF9F8
:102640002268536903F00803536130E6013663687A
:10265000B3420CD906EBC60304EB830393F87F3235
:10266000012BF3D1F1B22046FFF78FFDEEE7206892
:1026700000F04CFE10F4801F27D1206800F046FEC9
:1026800010F4001F5BD0012328E001366368B342D9
:102690001DD905EB4613D3F8002906EBC60304EB5E
:1026A000830393F84030012BEFD1002AEDDA06EBDB
:1026B000C60304EB8303012283F83F2066F07F0109
:1026C000C9B22046FFF761FDDFE70126DEE7226899
:1026D000536903F480135361CFE7013362689A4270
:1026E00028D905EB4312D2F8001B03EBC30204EB1D
:1026F000820292F88022012AEFD10029EDDA01F45A
:102700008031D4F8FC2402F001029142E5D103EBC0
:10271000C30204EB8202012182F87F12AA6942F00F
:102720008002AA616A6912F0800FD6D17B6843F4F7
:1027300000737B602268536903F4001353612068BF
:1027400000F0E4FD10F0804F10D1206800F0DEFDB5
:1027500010F0040F3FF43CAD23685D6815F0040FE2
:102760000DD1226853682B43536031E52046FFF7B3
:1027700029F92268536903F080435361E5E7204655
:10278000FFF726F9EDE710B40468606A31B940EA52
:102790000240A06200205DF8044B70478C46A36A9B
:1027A00000EB1340002308E003F1400104EB81013A
:1027B000496800EB11400133DBB20CF1FF318B4271
:1027C000F2D340EA02400CF13F0104EB8104606067
:1027D000E0E70368596200207047704782B0002329
:1027E0000193019B01330193019A0F4B9A4215D833
:1027F0000369002BF5DA00230193036943F0010319
:102800000361019B01330193019A074B9A4208D857
:10281000036913F0010FF4D1002000E0032002B09F
:1028200070470320FBE700BF400D030084B010B5E4
:10283000044603A880E80E00089B012B1FD1A36B60
:1028400023F48033A363E36823F4840323F0400379
:10285000E360E36823F44013E3600F9B012B09D08E
:102860002046FFF7BBFF069B012B1BD0BDE81040A5
:1028700004B07047E36843F48013E360F0E7E36873
:1028800043F04003E3602046FFF7A8FF0C9B23B909
:10289000A36B43F48033A363E5E7A36B23F4803396
:1028A000A363E0E7A36843F00603A360A36843F0D3
:1028B0002003A360DAE70000022A0AD00922C368D5
:1028C00023F47053C360C36843EA8223C3600020CB
:1028D0007047234B0B44234A93422FD9224B0B447E
:1028E000224A93422CD9A1F57403A3F51053204A30
:1028F000934227D9A1F18373A3F5E7431D4A93427D
:1029000022D31D4B0B441D4A93421FD91C4B0B4431
:102910001C4A93421CD31C4B0B441C4A934219D3B0
:10292000A1F1B773A3F55853194A934214D3194B25
:102930000B44194A934211D20722C0E70F22BEE787
:102940000E22BCE70D22BAE70C22B8E70B22B6E74D
:102950000A22B4E70922B2E70822B0E70622AEE76E
:10296000405327FFFF340C00401E1BFF3F420F0067
:102970007F4F120020D6130060B6E5FE5FE316001D
:1029800000D3CEFE40771B00C05BB3FEC091210098
:1029900020753800E05459FEE09C4100836843F004
:1029A0000103836000207047836823F00103836084
:1029B0000020704782B000230193019B01330193F3
:1029C000019A0F4B9A4215D80369002BF5DA0023C0
:1029D0000193890141F020010161019B01330193C1
:1029E000019A074B9A4208D8036913F0200FF4D1DB
:1029F000002000E0032002B070470320FBE700BF87
:102A0000400D030082B000230193019B0133019329
:102A1000019A0E4B9A4213D80369002BF5DA002372
:102A2000019310230361019B01330193019A074B2A
:102A30009A4208D8036913F0100FF4D1002000E087
:102A4000032002B070470320FBE700BF400D0300E6
:102A5000D0F800381943C0F8001800207047000073
:102A600084B02DE9F041044607A880E80E00002359
:102A700006E003F1400204EB8202002151600133C1
:102A80000E2BF6D9119F27BBD4F8043843F002036C
:102A9000C4F80438A36B43F40013A363A36B23F4BB
:102AA0000023A363A36B23F48023A3630023C4F850
:102AB000003E04F50065D4F80038C4F800380C9BDB
:102AC000012B14D1099B6BB900212046FFF7C0FFF1
:102AD00011E0A36B23F40013A363A36B43F400235F
:102AE000A363E3E701212046FFF7B2FF03E00321E0
:102AF0002046FFF7ADFF10212046FFF75BFF804621
:102B000008B14FF001082046FFF77CFF08B14FF0F5
:102B1000010800232B616B61EB610AE0C3B94FF040
:102B20000060C2F8000900220A614FF67F328A6015
:102B300001330799994210D904EB431202F5106151
:102B4000D2F800090028E9DB0020C2F80009EAE712
:102B50004FF09040C2F80009E5E700230AE0C3B156
:102B60004FF0904CC2F800CB002202614FF67F324A
:102B700082600133994211D904EB431202F53060AF
:102B8000D2F8006B002EEADB4FF0000CC2F800CB4D
:102B9000EAE74FF0006CC2F800CBE5E72B6923F4BD
:102BA00080732B610023A3616FF0804363610A9BF4
:102BB0001BB9A36943F01003A361A2690B4B134334
:102BC000A3610D9B1BB1A36943F00803A361012F0F
:102BD00004D04046BDE8F04104B07047A36943F01B
:102BE000804343F00403A361F3E700BF00383C8057
:102BF000D0F8083803F00603022B04D0062B04D0CB
:102C00002BB90020704702207047022070470F2028
:102C1000704710B591F800C04B78012B23D000F518
:102C2000006ED0F81C380CF00F040122A24043EAD9
:102C30000243C0F81C3800EB4C10D0F8003B13F4F2
:102C4000004F0ED1D0F8003BCA68C2F30A020979DE
:102C500042EA8142134343F0805343F40043C0F8F7
:102C6000003B002010BDD0F81C280CF00F0E03FA1A
:102C70000EF39BB21343C0F81C3800EB4C10D0F895
:102C8000003913F4004FECD1D0F80039CA68C2F310
:102C90000A02097942EA814242EA8C52134343F024
:102CA000805343F40043C0F80039DAE730B40B78BE
:102CB0004A78012A26D000EB4313D3F8002B002AD0
:102CC00052DBD0F83C480A7802F00F024FF0010CBA
:102CD0000CFA02F224EA0242C0F83C28D0F81C2880
:102CE000097801F00F010CFA01FC22EA0C42C0F84D
:102CF0001C28D3F8001B234A0A40C3F8002B0020ED
:102D000030BC704700EB4313D3F80029002A1EDBC8
:102D1000D0F83C580A7802F00F02012404FA02F2BB
:102D200092B225EA0202C0F83C28D0F81C280978A3
:102D300001F00F018C40A4B222EA0402C0F81C2862
:102D4000D3F80019104A0A40C3F80029D7E7D3F88E
:102D5000002942F00062C3F80029D3F8002942F0AC
:102D60008042C3F80029D3E7D3F8002B42F0006279
:102D7000C3F8002BD3F8002B42F08042C3F8002B9D
:102D80009FE700BF0078F3EF007833EC70B40B7866
:102D90004C78012C27D000EB431000F530631C6900
:102DA0006FF312041C611C696FF3DC441C618C69B5
:102DB0000CB1CC688C61CC68CC611C6944F40024F3
:102DC0001C611C69CD69C5F3120C44EA0C041C613A
:102DD000012A62D0D0F8003B43F00443C0F8003B26
:102DE000002070BC70478C695CBB00EB4314D4F8C6
:102DF00010596FF3DC45C4F81059D4F8105945F454
:102E00000025C4F81059D4F810596FF31205C4F80E
:102E10001059012A32D000EB4313D3F8002942F0B5
:102E20000442C3F800298B69002BD9D0D0F834387C
:102E3000097801F00F0101228A401343C0F83438A9
:102E4000CEE700EB431404F5106425696FF3120517
:102E5000256125696FF3DC452561CD688E69AE4239
:102E600000D98D61256945F40025256125698E69A4
:102E7000C6F3120C45EA0C052561CAE74A691AB186
:102E800000EB4311C1F8142900EB4313D3F80029D8
:102E900042F00442C3F80029A2E70A69002A99D047
:102EA0005A6197E710B483B0024600230193487833
:102EB00001280BD00B7802EB4313D3F8000B00284A
:102EC0002DDB002003B05DF8044B70470B7802EB5C
:102ED0004313D3F80049002C01DB0020F2E7D3F8BC
:102EE000004944F00064C3F800490B7802EB431337
:102EF000D3F8004944F08044C3F80049019B0133F2
:102F00000193019C42F210739C42DBD80B7802EBD8
:102F10004313D3F80039002BF0DB0020D2E7D3F8BD
:102F2000000B40F00060C3F8000B0B7802EB43137A
:102F3000D3F8000B40F08040C3F8000B019B013335
:102F40000193019842F21073984208D80B7802EB73
:102F50004313D3F8003B002BF0DB0020B2E7012045
:102F6000B0E710B59DF8084084B903334FEA930EDB
:102F70004FF0000C08E000EB023303F5805351F8EA
:102F8000044B1C600CF1010CF445F4D3002010BD7F
:102F9000F0B583B00B784C78012C31D000EB4313A3
:102FA00003F5306CDCF810406FF31204CCF81040DD
:102FB000DCF810406FF3DC44CCF810408C69002C36
:102FC00040F0C380DCF81040CD68C5F312052C43F7
:102FD000CCF81040DCF8104044F40024CCF8104049
:102FE000012A00F0CC800A79012A00F0CF80D3F8C2
:102FF000002B42F00442C3F8002B002003B0F0BDC8
:103000008C6974BB00EB4314D4F810596FF3DC45A2
:10301000C4F81059D4F8105945F40025C4F81059D3
:10302000D4F810596FF31205C4F81059012A4AD088
:1030300000EB4313D3F8004944F00444C3F80049BB
:103040000C79012C68D08B69002BD6D0D0F834389D
:10305000097801F00F0101228A401343C0F8343887
:10306000CBE700EB4314D4F810596FF31205C4F802
:103070001059D4F810596FF3DC45C4F81059D4F83E
:1030800010698D69CF683D44013DB5FBF7F5494FA7
:1030900007EAC5453543C4F81059D4F810598E696C
:1030A000C6F312063543C4F8105904F510640D79BF
:1030B000012DBBD1256925F0C0452561256945F065
:1030C00000552561B2E74A691AB100EB4314C4F810
:1030D00014290A79012A08D000EB4313D3F80029F8
:1030E00042F00442C3F8002987E7D0F8082812F418
:1030F000807F08D100EB4311D1F8002942F0005243
:10310000C1F80029E8E700EB4311D1F8002942F0AB
:103110008052C1F80029DFE7D0F8084814F4807F16
:103120000CD1D3F8004944F00054C3F80049009290
:103130000B8B0A780969FFF714FF5EE7D3F80049A3
:1031400044F08054C3F80049F1E7CD682C44013CB9
:10315000B4FBF5F4A4B204FB05F5CD61DCF8105026
:10316000144E06EAC4442C43CCF81040DCF810405E
:10317000CD69C5F312052C43CCF8104030E70A693D
:10318000002A3FF430AFCCF814202CE7D0F8082800
:1031900012F4807F06D1D3F8002B42F00052C3F81E
:1031A000002B24E7D3F8002B42F08052C3F8002B09
:1031B0001DE700BF0000F81F10B5844608464FEA1F
:1031C000920E02F00302002305E00CF5805109681D
:1031D00040F8041B01337345F7D37AB10CF5805CDA
:1031E000DCF800400021CBB2DB0024FA03F300F846
:1031F000013B0131013A92B2002AF4D110BD0B78A3
:103200004A78012A14D000EB4310D0F8002B002A92
:1032100006DB2BB1D0F8003B23F08043C0F8003B25
:10322000D0F8003B43F40013C0F8003B0020704787
:1032300000EB4310D0F80029002A06DB2BB1D0F8B0
:10324000003923F08043C0F80039D0F8003943F446
:103250000013C0F80039E9E70B784A78012A0ED04C
:1032600000EB4310D0F8003B23F40013C0F8003B00
:103270000B79023BDBB2012B15D90020704700EB24
:103280004310D0F8003923F40013C0F800390B794B
:10329000023BDBB2012BF0D8D0F8003943F0805369
:1032A000C0F80039E9E7D0F8003B43F08053C0F89C
:1032B000003BE2E7D0F8003823F4FE63C0F80038A2
:1032C000D0F80038090101F4FE610B43C0F8003862
:1032D00000207047D0F8003E23F00303C0F8003E02
:1032E000D0F8043823F00203C0F8043800207047F7
:1032F000D0F8003E23F00303C0F8003ED0F80438B5
:1033000043F00203C0F80438002070474269806926
:1033100010407047D0F8183800F50060C0691840B8
:10332000000C7047D0F8183800F50060C0691840EC
:1033300080B2704700EB4111D1F8082B00F5006016
:10334000406910407047D0F81028D0F8343801F0A8
:103350000F0C23FA0CF3DB01DBB2134300EB41103B
:1033600000F51060806818407047406900F0010067
:10337000704738B50546C36823F0C043C3600129D0
:1033800013D019BBC36843F08043C36000240120FD
:1033900000F0B4FD01342846FFF7E7FF08B1312CF7
:1033A000F5D9322C14D0002038BDC36843F0005347
:1033B000C3600024012000F0A1FD01342846FFF77E
:1033C000D4FF0128EDD0312CF4D9EAE70120EBE756
:1033D0000120E9E7D0F800396FF30A03C0F800399B
:1033E000D0F8043843F48073C0F8043800207047E4
:1033F00010B4046C154B9C4203D9D0F8003B002B51
:1034000016DB0024C0F8104BD0F8104B44F4002415
:10341000C0F8104BD0F8104B44F01804C0F8104B13
:10342000D0F8104B44F0C044C0F8104B012903D031
:1034300000205DF8044B7047C0F8142BD0F8003B17
:1034400043F08023C0F8003BF2E700BF0A30544F3E
:10345000002800F0E08170B582B00446036813F0E4
:10346000010F3BD09F4B9B6803F00C03042B2CD027
:103470009C4B9B6803F00C03082B21D06368B3F5C9
:10348000803F4FD0B3F5A02F52D0964B1A6822F44C
:1034900080321A601A6822F480221A606368002B56
:1034A00050D000F025FD05468E4B1B6813F4003FFD
:1034B00014D100F01DFD401B6428F5D90320B1E1B3
:1034C000884B5B6813F4800FD8D0864B1B6813F4CD
:1034D000003F03D06368002B00F09F81236813F046
:1034E000020F54D07F4B9B6813F00C0F3ED07D4BE6
:1034F0009B6803F00C03082B33D0E368002B68D0E3
:10350000794B01221A6000F0F3FC0546754B1B68ED
:1035100013F0020F54D100F0EBFC401B0228F5D948
:1035200003207FE16F4A136843F480331360B5E7EB
:103530006C4B1A6842F480221A601A6842F4803296
:103540001A60ABE700F0D4FC0546664B1B6813F429
:10355000003FC3D000F0CCFC401B6428F5D9032009
:1035600060E1604B5B6813F4800FC6D15D4B1B6854
:1035700013F0020F03D0E368012B40F05081594A49
:10358000136823F0F803216943EAC1031360236839
:1035900013F0080F42D063696BB3534B0122C3F899
:1035A000802E00F0A5FC05464E4B5B6F13F0020F1A
:1035B00034D100F09DFC401B0228F5D9032031E1F5
:1035C000484A136823F0F803216943EAC1031360F2
:1035D000DDE7454B00221A6000F08AFC0546414BAE
:1035E0001B6813F0020FD2D000F082FC401B0228AF
:1035F000F5D9032016E13C4B0022C3F8802E00F0E1
:1036000077FC0546374B5B6F13F0020F06D000F0D6
:103610006FFC401B0228F5D9032003E1236813F057
:10362000040F77D02F4B1B6C13F0805F33D1002336
:1036300001932C4B1A6C42F080521A641B6C03F0FD
:1036400080530193019B0125284B1B6813F4807F55
:1036500023D0A368012B34D0052B38D0214B1A6F0F
:1036600022F001021A671A6F22F004021A67A36897
:10367000002B3DD000F03CFC06461A4B1B6F13F0AC
:10368000020F46D100F034FC801B41F2883398428F
:10369000F3D90320C6E00025D6E7144A136843F4A3
:1036A0008073136000F024FC0646104B1B6813F473
:1036B000807FCED100F01CFC801B0228F5D90320AE
:1036C000B0E0084A136F43F001031367CFE7054BDF
:1036D0001A6F42F004021A671A6F42F001021A6769
:1036E000C5E700BF003802400000474200700040BC
:1036F00000F0FEFB0646524B1B6F13F0020F08D082
:1037000000F0F6FB801B41F288339842F3D9032086
:1037100088E0EDB9A369002B00F08380484A9268E5
:1037200002F00C02082A51D0022B17D0454B002280
:103730001A6600F0DDFB0446414B1B6813F0007F66
:1037400042D000F0D5FB001B0228F5D9032069E028
:103750003B4A136C23F080531364DBE7394B0022A0
:103760001A6600F0C5FB0546354B1B6813F0007F59
:1037700006D000F0BDFB401B0228F5D9032051E024
:10378000E369226A1343626A43EA8213A26A520817
:10379000013A43EA0243E26A43EA0263284A536079
:1037A000284B01221A6600F0A3FB0446244B1B6839
:1037B00013F0007F06D100F09BFB001B0228F5D917
:1037C00003202FE000202DE000202BE0012B2BD048
:1037D0001B4B5B6803F48001E269914226D103F040
:1037E0003F02216A8A4223D1616A47F6C0721A40B9
:1037F000B2EB811F1ED103F44031A26A5208013A94
:10380000B1EB024F18D103F07063E26AB3EB026FC1
:1038100014D1002006E001207047012002E00120C1
:1038200000E0002002B070BD0120FBE70120F9E7B5
:103830000120F7E70120F5E70120F3E70120F1E798
:10384000003802400000474208B5264B9B6803F051
:103850000C03042B41D0082B41D1224B5A6802F0B3
:103860003F025B6813F4800F12D01E4B5968C1F3FE
:1038700088111D480023A1FB0001FDF7CFF8194B6B
:103880005B68C3F3014301335B00B0FBF3F008BD99
:10389000144B5868C0F388104FEA401CBCEB000C76
:1038A0006EEB0E0E4FEA8E1343EA9C634FEA8C11C7
:1038B000B1EB0C0163EB0E03DB0043EA5173C9006B
:1038C00011EB000C43F10003990200234FEA8C2016
:1038D00041EA9C51FDF7A2F8D1E70348D7E7034836
:1038E000D5E700BF00380240001BB7000024F400F9
:1038F000002800F09B8070B50D4604464F4B1B68B6
:1039000003F007038B4208D2CBB24C4A1370136802
:1039100003F007038B4240F08B80236813F0020F03
:1039200017D013F0040F04D0454A936843F4E053D2
:103930009360236813F0080F04D0414A936843F45E
:10394000604393603E4A936823F0F003A1680B4301
:103950009360236813F0010F32D06368012B21D0EC
:103960009A1E012A25D9364A126812F0020F61D038
:1039700033498A6822F0030213438B6000F0B8FADF
:1039800006462F4B9B6803F00C036268B3EB820F73
:1039900016D000F0ADFA801B41F288339842F0D97E
:1039A000032042E0264A126812F4003FE0D10120D1
:1039B0003BE0234A126812F0007FD9D1012034E0A5
:1039C0001E4B1B6803F00703AB4207D9EAB21B4B3F
:1039D0001A701B6803F00703AB422DD1236813F064
:1039E000040F06D0164A936823F4E053E1680B43B2
:1039F0009360236813F0080F07D0114A936823F4EB
:103A00006043216943EAC1039360FFF71DFF0C4B3C
:103A10009B68C3F303130B4AD35CD8400A4B18606E
:103A20000A4B186800F018FA002070BD012070479A
:103A30000120FAE70120F8E70120F6E7003C024008
:103A400000380240CC7F00085C00002058000020B5
:103A5000014B1868704700BF5C00002008B5FFF7F5
:103A6000F7FF044B9B68C3F38223034AD35CD8401F
:103A700008BD00BF00380240C47F000808B5FFF74A
:103A8000E7FF044B9B68C3F34233034AD35CD8403F
:103A900008BD00BF00380240C47F000800230F2B80
:103AA00000F2E98070B582B065E085684FEA430EA8
:103AB000032404FA0EF425EA0405CC6804FA0EF493
:103AC0002C438460446824EA02044A68C2F300126A
:103AD0009A40224342605CE0DC08083450F824201D
:103AE00003F00705AD004FF00F0E0EFA05FE22EAB7
:103AF0000E0E0A69AA4042EA0E0240F824205CE059
:103B0000072200E0002202FA0EF22A4302345A4D44
:103B100045F82420594A94686FEA0C0224EA0C05FF
:103B20004E6816F4801F01D04CEA0405534CA56082
:103B3000E46802EA04054E6816F4001F01D04CEA5E
:103B400004054E4CE560646802EA04054E6816F40C
:103B5000003F01D04CEA0405484C656024682240CF
:103B60004D6815F4803F01D04CEA0402434C2260BA
:103B700001330F2B7DD801229A400C6804EA020C15
:103B800032EA0404F4D14C6804F00304013C012C33
:103B90008BD94A6802F00302032A09D0C4685D0089
:103BA0000322AA4024EA02048A68AA402243C2608F
:103BB0004A6802F00302022A8ED004684FEA430EDC
:103BC000032202FA0EF224EA02044A6802F0030217
:103BD00002FA0EF2224302604A6812F4403FC7D054
:103BE00000220192264A546C44F480445464526C7E
:103BF00002F480420192019A9C08A51C1E4A52F8C8
:103C0000255003F0030E4FEA8E0E0F2202FA0EF239
:103C100025EA02051B4A90423FF474AF02F5806228
:103C200090421AD002F58062904218D002F580626C
:103C3000904216D002F58062904214D002F5806264
:103C4000904212D002F58062904210D002F580625C
:103C500090423FF455AF082255E7012253E7022274
:103C600051E703224FE704224DE705224BE70622E6
:103C700049E702B070BD704700380140003C014088
:103C800000380240000002400AB181617047090417
:103C900081617047436901EA030221EA030141EAB5
:103CA00002418161704770B50446866D00F020F9CD
:103CB00094F83530DBB2022B06D0802363650023F5
:103CC00084F83430012070BD05462268136823F063
:103CD000160313602268536923F080035361236C39
:103CE000E3B12268136823F00803136022681368A5
:103CF00023F00103136023681B6813F0010F11D038
:103D000000F0F6F8431B052BF5D92023636503204B
:103D100084F83500002384F83430D4E7A36C002BFA
:103D2000DFD1E3E7E26D3F239340B360012384F8E2
:103D30003530002084F83400C5E790F83530DBB228
:103D4000022B03D08023436501207047052380F8B0
:103D500035300268136823F00103136000207047B8
:103D600090F8350070470000002808DB0901C9B24F
:103D700000F1604000F5614080F80013704700F0EA
:103D80000F000901C9B2014B1954704714ED00E04E
:103D900000B500F00700C0F1070CBCF1040F28BF0C
:103DA0004FF0040C031D062B0FD9C31E4FF0FF3E2E
:103DB0000EFA0CF021EA000199400EFA03FE22EA05
:103DC0000E0241EA02005DF804FB0023EEE700006A
:103DD000074AD36823F4E0631B041B0C000200F4C1
:103DE000E060034343F0BF6343F40033D3607047A4
:103DF00000ED00E010B50446054BD868C0F3022082
:103E0000FFF7C6FF01462046FFF7AEFF10BD00BF1B
:103E100000ED00E0002807DB00F01F02400901234D
:103E20009340024A42F82030704700BF00E100E0B2
:103E30000138B0F1807F0BD24FF0E0235861054A82
:103E4000F02182F823100020986107221A61704740
:103E50000120704700ED00E010B504460E4B1A78C3
:103E60004FF47A73B3FBF2F30C4A1068B0FBF3F033
:103E7000FFF7DEFF68B90F2C01D901200AE000220C
:103E800021464FF0FF30FFF7B5FF054B1C600020C7
:103E900000E0012010BD00BF540000205C000020A5
:103EA0005800002008B50B4B1A6842F400721A60E3
:103EB0001A6842F480621A601A6842F480721A60CA
:103EC0000320FFF785FF0F20FFF7C6FFFDF77AF805
:103ED000002008BD003C0240034A1168034B1B78D8
:103EE0000B441360704700BF68100020540000208E
:103EF000014B1868704700BF6810002038B50446B1
:103F0000FFF7F6FF0546B4F1FF3F02D0044B1B78E4
:103F10001C44FFF7EDFF401BA042FAD338BD00BFA1
:103F200054000020002800F0A18038B5044690F825
:103F30002030D3B12268136843F001031360FFF708
:103F4000D7FF054623685A6812F0010F10D1FFF71A
:103F5000CFFF401B0A28F5D9636A43F4003363623C
:103F6000052384F82030012038BDFDF7C7F8E1E7CC
:103F70001A6822F002021A60FFF7BAFF05462368AA
:103F80005A6812F0020F0DD0FFF7B2FF401B0A284B
:103F9000F5D9636A43F400336362052384F8203063
:103FA0000120E1E7227E012A3DD01A6822F080023A
:103FB0001A60637E012B3BD02268136823F0400314
:103FC0001360A37E012B39D02268136823F02003ED
:103FD0001360E37E012B37D02268136843F010038F
:103FE0001360237F012B35D02268136823F0080368
:103FF0001360637F012B33D02268136823F004031E
:104000001360A368E2681343226913436269134390
:104010006268013A21681343CB610020606201238A
:1040200084F82030A0E71A6842F080021A60C0E7E6
:104030002268136843F040031360C2E722681368E4
:1040400043F020031360C4E72268136823F01003D1
:104050001360C6E72268136843F008031360C8E7DB
:104060002268136843F004031360CAE70120704715
:1040700090F82030013BDBB2012B05D9436A43F4B1
:10408000802343620120704730B5464BD3F80022AD
:1040900042F00102C3F80022D3F8002222F47C523D
:1040A000C3F80022D3F80022486A42EA0022C3F88B
:1040B00000224A6902F01F02012000FA02F2D3F83E
:1040C0001C026FEA020C20EA0200C3F81C02CB6952
:1040D000C3B9344BD3F80C020CEA0000C3F80C024D
:1040E0008C884869CD6844EA0544483043F830403C
:1040F0008C68088840EA04404C6904F1480E03EBE0
:10410000CE035860CB69012B1ED08B69002B33D1B5
:104110002448D0F804320CEA0303C0F804320B69D7
:104120008BBB2048D0F814320CEA0303C0F81432D9
:104130000B6A012B2ED01B4AD2F8003223F0010368
:10414000C2F80032002030BD164BD3F80C021043E9
:10415000C3F80C028C8848690D6844EA054448306D
:1041600043F8304088894C698D6840EA05404834FE
:1041700003EBC4035860C8E70A48D0F8043213437D
:10418000C0F80432CBE70748D0F814321343C0F824
:104190001432CDE70349D1F81C321343C1F81C3265
:1041A000C9E700BF0064004070B5044690F8205095
:1041B000EDB2012D06D0436A43F40023436201258A
:1041C000284670BD022380F820300268136823F06F
:1041D00001031360FFF78CFE064623685B6813F04B
:1041E000010F0CD0FFF784FE831B0A2BF5D9636AFD
:1041F00043F400336362052384F82030E0E70025B0
:104200006562DDE730B590F820C00468A4680CF161
:10421000FF3C5FFA8CFCBCF1010F6BD814F0E05F3F
:1042200062D0C4F3016CBCF1020F05D9436A43F4B8
:1042300000034362012062E0012404FA0CF41C60D4
:104240008B68002B3DD10D68CB68046843EA455567
:104250000CF118031B01E55003680C690CF1180EF2
:1042600003EB0E135C600B7D012B35D0D179937974
:104270001B0443EA0163517943EA0123147901687D
:10428000234301EB0C11C1F88C31D17893781B04D6
:1042900043EA0163517843EA0123117802680B4332
:1042A00002EB0C12C2F8883102680CF1180C4FEACC
:1042B0000C1C52F80C3043F0010342F80C30002083
:1042C0001DE04C6843EAC403CC6823430CF1180496
:1042D000240105682B51BFE7036803EB0E135968EF
:1042E00041F480715960C1E7436A43F400134362AB
:1042F000012004E0436A43F480234362012030BD7F
:1043000090F820C00CF1FF3C5FFA8CFCBCF1010F6F
:1043100000F2958030B451B90468E46814F0030FDA
:1043200010D1436A43F400134362012077E004682C
:10433000246914F0030F05D1436A43F40013436268
:1043400001206CE001F11B04240105682C5904F0E4
:1043500004049460002C64D101F11B04240105685D
:104360002C59640D1460046801F11B0C4FEA0C1CFD
:1043700054F80C4004F00204D46004686444646897
:1043800004F00F041461046864446468C4F30724EF
:104390009461046864446468240C5461026802EB0C
:1043A0000112D2F8B8211A70026802EB0112D2F899
:1043B000B821C2F307225A70026802EB0112D2F848
:1043C000B821C2F307429A70026802EB0112D2F8D8
:1043D000B821120EDA70026802EB0112D2F8BC2189
:1043E0001A71026802EB0112D2F8BC21C2F3072253
:1043F0005A71026802EB0112D2F8BC21C2F30742E3
:104400009A71026802EB0112D2F8BC21120EDA7125
:1044100079B90268D36843F02003D360002030BC30
:10442000704701F11B04240105682C59E40854600D
:1044300099E70268136943F020031361EEE7436ACA
:1044400043F4802343620120704790F82030013B01
:10445000DBB2012B05D9436A43F480234362012078
:104460007047026853690B435361002070477047DF
:104470007047704770477047704770477047704784
:10448000704770472DE9F84F054603685C69D3F81B
:1044900004809F68D3F80CA0D3F81090D3F818B01C
:1044A00014F001063BD017F0010616D001229A60E5
:1044B00017F0020F08D117F0040F0CD117F00806FF
:1044C00006D04FF4805608E0FFF7D1FF002604E045
:1044D000FFF7D0FF01E04FF4006617F4807F0DD0A6
:1044E0002B684FF480729A6017F4007F40F096803A
:1044F00017F4806F00F0968046F4005617F4803F62
:104500000DD02B684FF480329A6017F4003F40F0D2
:10451000938017F4802F00F0938046F4004614F047
:10452000080F07D01AF0100F04D046F400762B685D
:104530001022DA6014F0040F03D01AF0080F40F0D4
:10454000898014F0020F05D02B68DB6813F0030F8D
:1045500040F0878014F0400F07D019F0100F04D0FE
:1045600046F480662B6810221A6114F0200F02D0E6
:1045700019F0080F79D114F0100F04D02B681B69C3
:1045800013F0030F78D114F4003F02D018F0100F8D
:1045900076D114F4803F02D018F0080F77D114F4CC
:1045A000004F37D018F0040F31D014F4807F04D0BE
:1045B0001BF0010F01D046F0010614F4007F04D077
:1045C0001BF0020F01D046F0020614F4806F04D0F5
:1045D0001BF0040F01D046F0040614F4006F16D04F
:1045E0001BF0700B13D0BBF1400F66D056D8BBF157
:1045F000200F5CD0BBF1300F5CD0BBF1100F01D1AC
:1046000046F008062A68936923F0700393612B68CB
:1046100004225A60002E56D1BDE8F88F2846FFF7D5
:1046200027FF6BE717F4006F02D046F4804665E77A
:104630002846FFF720FF61E72846FFF71AFF6EE7DD
:1046400017F4002F02D046F4803668E72846FFF7BB
:1046500013FF64E72B680822DA602846FFF70DFF96
:104660006FE72846FCF77CFF74E72B6808221A6185
:104670002846FFF704FF7EE72846FFF7FFFE82E7A4
:104680002B6810225A602846FFF7FAFE81E72B6854
:1046900008225A602846FFF7F4FE80E7BBF1500F6E
:1046A0000ED0BBF1600FADD146F48076AAE746F09C
:1046B0001006A7E746F02006A4E746F04006A1E76B
:1046C00046F080069EE76B6A33436B622846FCF730
:1046D0005BFDA1E790F83E30DBB2402B10D00369C0
:1046E000B3F5804F1BD0036D002B39D1436CC3F35E
:1046F000C813026803F0060343F0F0031361704728
:10470000036D2BB9436C026803F0FE03136170471D
:10471000436C026843F00103DBB21361704790F809
:104720003D30DBB2212B0FD0436C026843F0010314
:10473000DBB21361436B6BB1DB6B5BB10268536837
:1047400043F4006353607047436C026803F0FE0358
:104750001361EFE7836B33B1DB6B002BEED102E02B
:10476000036D012B00D07047436CC3F3C81302687C
:1047700003F0060343F0F1031361F4E7436C0268AE
:10478000DBB21361436B3BB1DB6B2BB10268536847
:1047900043F4006353607047836B002BFBD0DB6BEB
:1047A000002BF3D1F7E7000010B48BB090F83E3047
:1047B000DAB2C16A046B90F83D30DBB2222B0BD029
:1047C0000023099303685A6909929B690993099B1D
:1047D0000BB05DF8044B7047036D0BB9402A17D03E
:1047E000036D1BB90369B3F5404F19D0438D9BB2DC
:1047F000002B25D1029303685A6902929A690292AA
:10480000029A1A6842F400721A6000230365DFE717
:10481000009303685A6900929B690093009BD7E755
:104820000023019303685A6901929A690192019ADF
:104830001A6842F480721A60036D01330365C7E79A
:10484000438D9BB2012B26D0438D9BB2022B7CD093
:104850000268136843F48063136003685A6812F4B3
:10486000006F0FD0202900F2AE800829C0F0A78089
:104870000839574ACA4012F0010F03D05A6842F46F
:1048800080525A600023089303685A6908929B6912
:104890000893089BB9E711F5803F11D0082934D05F
:1048A000202932D0122C2ED0042940D002293ED00B
:1048B00010293CD00268136823F4806313603BE046
:1048C0000268136823F48063136003685A6812F463
:1048D000006F0CD01A6822F480621A6000230393E0
:1048E00003685A6903929B690393039B8DE7002237
:1048F00004925A6904929A690492049A1A6842F4DA
:1049000000721A6081E70129D0D00268136823F48D
:10491000806313600023069303685A6906929A69BC
:104920000692069A1A6842F400721A606DE70268ED
:10493000136843F4806313600023059303685A6986
:1049400005929B690593059B5FE710290AD8214BC7
:10495000CB4013F0010F05D00268136843F4806365
:10496000136009E00268136823F48063136002682F
:10497000136843F40063136003685A6812F4006F0D
:104980000DD0202917D8082912D30839104ACA4057
:1049900012F0010F03D05A6842F480525A6000238B
:1049A000079303685A6907929B690793079B2CE753
:1049B0000129F4D1EFE711F5803FF0D1EBE70129B0
:1049C0007FF460AF5AE711F5803F7FF45BAF55E7A6
:1049D0000101000114000100438D9BB25BB1426AEA
:1049E000036812781A61436A01334362438D9BB2B4
:1049F000013B9BB243857047438D9BB25BB103681B
:104A00001A69436A1A70436A01334362438D9BB249
:104A1000013B9BB24385704782B0002301930E4B4C
:104A20001B68DB080D4AA2FB03231B0A03EB83036D
:104A30000193019B013B0193019B33B103681B6808
:104A400013F4007FF5D1002004E0036C43F0200351
:104A50000364012002B070475C00002089B5F8149F
:104A6000C36AB3F52A0F04D0C36AB3F12A4F03D047
:104A700070470123C36270470823C362F8E7000050
:104A8000002800F0CC8070B5044690F83D30002B33
:104A900077D0242384F83D302268136823F0010383
:104AA00013602268136843F400431360226813689C
:104AB00023F400431360FEF7D1FF62685A4B9A4219
:104AC00064D85A4B98428CBF00230123002B40F03E
:104AD000A8805749A1FB00318B0C25686A6822F039
:104AE0003F0242EA91426A6021680A6A22F03F026C
:104AF00066684D4DAE424FD8013313430B622168B7
:104B0000CA6922F44F4222F0FF026568464B9D427B
:104B10004CD8431E6D00B3FBF5F3013340F6FC7037
:104B2000034278D0C3F30B031A43CA6121680B68B0
:104B300023F0C003E269206A024313430B6021683B
:104B40008B6823F4034323F0FF032269E0680243E8
:104B500013438B602168CB6823F0FF036269A0696F
:104B600002431343CB602268136843F001031360D0
:104B700000202064202384F83D30206384F83E0028
:104B800070BD80F83C30FCF727FB82E7294B984248
:104B90008CBF0023012399E74FF4967505FB03F3BF
:104BA000254DA5FB03539B090133A6E7A668BEB9B3
:104BB000431E05EB450CB3FBFCF30133C3F30B03BE
:104BC000B3FA83F35B0943BBC6B9431E05EB450546
:104BD000B3FBF5F30133C3F30B0343F40043A3E743
:104BE000431E05EB850C0CEB8C0CB3FBFCF3013383
:104BF000C3F30B03B3FA83F35B09E4E7431E05EB4E
:104C0000850505EB8505B3FBF5F30133C3F30B0312
:104C100043F4404388E7042386E7012384E7012027
:104C200070470120ACE700BFA08601007F841E0012
:104C300083DE1B43FF083D00D34D621090F83D30EA
:104C4000DBB2202B37D1002937D0002A37D090F89B
:104C50003C30012B35D010B4012380F83C30036880
:104C60001C6814F0010F03D11C6844F001041C609F
:104C70000468236823F400632360222380F83D3016
:104C8000202380F83E300023036441624285428D38
:104C900002850D4AC26201680A6842F480620A60B5
:104CA00080F83C3001684A6842F4E0624A60184685
:104CB0005DF8044B704702207047012070470120C7
:104CC00070470220704700BF0000FFFF7047704729
:104CD000704708B590F83D30DAB2438D9BB283B18E
:104CE000416A036809781961436A01334362438D5D
:104CF0009BB2013B9BB24385438D9BB20BB9292AE2
:104D000000D008BD0268536823F4806353602123F8
:104D10000363282380F83D30FFF7DAFFF1E708B599
:104D200090F83D30DAB2438D9BB283B103681969C4
:104D3000436A1970436A01334362438D9BB2013B5E
:104D40009BB24385438D9BB20BB92A2A00D008BD84
:104D50000268536823F4806353602223036328238B
:104D600080F83D30FBF794FEF1E7704700B583B063
:104D700090F83D3003F02803282B0CD0002301933A
:104D800002685169019192690192019A80F83C3060
:104D900003B05DF804FB0268536823F4806353603A
:104DA00011F0040F0BD0002311F0800F09D182897C
:104DB000002180F83C101946FFF7D7FFE8E70123F0
:104DC000F2E7028BF4E7704708B590F83D30DBB2AC
:104DD000C26A082A01D0202A01D1282B06D0212B13
:104DE0001ED003686FF480625A6108BD1A4BC3621B
:104DF0000268536823F4E063536003686FF48062D1
:104E00005A610268136823F480631360002303630C
:104E1000202280F83D2080F83E30FFF7D4FFE4E701
:104E20000D4BC36221230363202380F83D30002310
:104E300080F83E300268536823F4E06353600368EF
:104E40006FF480625A610268136823F48063136010
:104E5000FFF73EFFC9E700BF0000FFFF704708B53E
:104E6000C26A90F83D30DBB2212B00D008BD438DE3
:104E70009BB263B1426A036812781A61436A0133D4
:104E80004362438D9BB2013B9BB24385EEE7082A08
:104E900004D0202A02D012F5803F19D1026853684D
:104EA00023F4E06353600268136843F400731360F3
:104EB00000230363202380F83D3090F83E30DBB2BE
:104EC000402B15D0002380F83E30FFF7FFFECDE7E2
:104ED0000268536823F4E0635360112303630023E3
:104EE00080F83E30202380F83D30FFF7EFFEBDE72D
:104EF000002380F83E30FFF7B1FFB7E708B590F820
:104F00003D30026D9AB9C36C012B08D0836C0268E6
:104F1000C3F307231361036D0133036508BD836C7D
:104F20000268DBB21361036D02330365F6E7DBB29F
:104F3000026D012A23D0026D022AEFD1222B26D046
:104F4000428D92B20AB1212B2AD0428D92B2002A10
:104F5000E4D1212BE2D10268536823F4E06353606B
:104F60000268136843F40073136000230363202274
:104F700080F83D2080F83E30FFF770FFCEE7836C6D
:104F80000268DBB21361036D01330365C6E7026893
:104F9000136843F480731360036D01330365BDE749
:104FA000426A036812781A61436A01334362438D8F
:104FB0009BB2013B9BB24385B0E710B590F83D3002
:104FC000DBB290F83E20D2B2C46A018D00293BD1F9
:104FD000212B02D0402A42D010BD082C04D0202C16
:104FE00002D014F5803F19D10268536823F4E063BE
:104FF00053600268136843F4007313600023036373
:10500000202380F83D3090F83E30DBB2402B15D0A5
:10501000002380F83E30FFF759FEDDE70268536851
:1050200023F4E063536011230363002380F83E30D0
:10503000202380F83D30FFF749FECDE7002380F8BC
:105040003E30FFF70BFFC7E7212BC3D1438D9BB247
:1050500043B90268536823F480635360BCE7222B92
:10506000BAD1F3E790F83E30DBB2402B0CD0426A65
:10507000036812781A61436A01334362438D9BB21D
:10508000013B9BB24385A7E7FFF738FFA4E77047D2
:1050900008B5C26A438D9BB2042B14D0438D9BB2DA
:1050A000032B22D0438D9BB2022B39D003681A699F
:1050B000436A1A70436A01334362438D9BB2013BDA
:1050C0009BB2438510E00268536823F48063536009
:1050D00003681A69436A1A70436A01334362438D55
:1050E0009BB2013B9BB2438508BD01684B6823F42A
:1050F00080634B60042A06D0022A04D00268136839
:1051000023F48063136003681A69436A1A70436A60
:1051100001334362438D9BB2013B9BB24385E3E77E
:10512000013A0F2A40D8DFE802F008393F393F3F03
:105130003F3F3F3F3F3F3F3F3F080268136823F434
:105140008063136003681A69436A1A70426A531CC9
:105150004362438D9BB2013B9BB2438503681B694D
:105160005370436A01334362438D9BB2013B9BB250
:1051700043850268536823F440735360202380F80A
:105180003D3090F83E30DBB2402B13D0002380F846
:105190003E3012230363FFF79AFDA5E70268136808
:1051A00043F480631360CDE70268136843F400732F
:1051B0001360C7E7002380F83E300363FFF767FF03
:1051C00092E7704790F83D30DBB2222B00D0704759
:1051D00010B50446438D9BB2032B15D903681A6999
:1051E000436A1A70436A01334362438D9BB2013BA9
:1051F0009BB24385438D9BB2032B0FD1026853684A
:1052000023F48063536009E0C26A022A01D0012BB3
:1052100005D92268536823F48063536010BDFFF7FB
:10522000FBFB00282ED12268136823F480631360EF
:105230002268536823F4E063536023681A69636A41
:105240001A70636A01336362638D9BB2013B9BB248
:105250006385202384F83D3094F83E30DBB2402B48
:1052600008D0002384F83E30122323632046FFF742
:105270002EFDD3E7002384F83E3023632046FFF75A
:1052800006FFCBE72268536823F4E063536023688A
:105290001A69636A1A70636A01336362638D9BB231
:1052A000013B9BB26385202384F83D30002384F8C2
:1052B0003E302046FFF785FFB0E7704700B583B06A
:1052C00000230193806B90F83D20D2B2324B1B68D3
:1052D000DB083249A1FB03131B0A03EB8303C3EB77
:1052E000C3030193019B43B1019B013B01930368FD
:1052F0001B6813F4007FF5D103E0036C43F0200337
:105300000364436B0BB10021D963836B0BB10021A4
:10531000D96301680B6823F480630B600023438525
:10532000436B0BB100211965836B0BB1002119652B
:1053300001680B6823F001030B6090F83D30DBB28D
:10534000602B0ED002F02802282A14D0202380F8E7
:105350003D30002380F83E30FFF733FF03B05DF8A7
:1053600004FB202380F83D30002380F83E300364A6
:10537000FFF7A3FFF2E70268136843F0010313602D
:105380000268136843F480631360002303632823D7
:1053900080F83D30E0E700BF5C00002089B5F814DC
:1053A00010B5044690F83D30DBB290F83E20D2B202
:1053B000102A36D0402A34D003F02802282A38D0C8
:1053C0002268526812F4006F07D1602B05D02023A9
:1053D00084F83D30002384F83E30002323632368A3
:1053E0005A6812F4006F48D05A6822F400625A607A
:1053F000626B92F83530DBB2012B20D0444B136541
:10540000606BFEF79AFC002849D02268136823F0ED
:1054100001031360202384F83D30606B036D9847CF
:105420003DE0222BC8D121680A6822F400620A609C
:10543000C2E700232363282384F83D30CFE7A36B22
:10544000334A1A65A06BFEF778FC40B323685A69AB
:1054500012F0400F05D01A69636A1A70636A01334B
:1054600063622268136823F001031360202384F829
:105470003D30A06B036D984711E094F83D20D2B207
:10548000602A1FD05A6912F0400F05D01A69636A6A
:105490001A70636A013363622046FFF792FE236C41
:1054A00013F00F0F04D02268536823F4E0635360B5
:1054B00094F83D30DBB2226C12F0040F01D0282B9F
:1054C00018D010BD202284F83D20002222645A69A1
:1054D00012F0400F05D01A69636A1A70636A0133CB
:1054E00063622268136823F0010313602046FFF70C
:1054F000E4FED4E7074BE36200232363202284F811
:105500003D2084F83E302046FFF75DFCD9E700BF20
:10551000BD5200080000FFFF30B583B0044690F88C
:105520003D50EDB20268536823F4E06353600023FA
:10553000019303685A6901921A6842F001021A60E5
:10554000019B0268136823F48063136003685A6840
:1055500012F4006F38D0222D21D02A2D1FD0426B9B
:105560001268526892B24285428D92B21AB1026CB0
:1055700042F0040202645A6822F400625A60606BCE
:10558000FEF7EEFB01281FD0636B444A1A65606B7F
:10559000FEF7D3FBC0B1606B036D984714E0A26BBC
:1055A0001268526892B26285628D92B21AB1226C10
:1055B00042F0040222645A6822F400625A60A06B2E
:1055C000FEF7CEFB012842D1638D9BB233B3236833
:1055D0005A6912F0040F0AD01A69636A1A70636A72
:1055E00001336362638D9BB2013B9BB26385236889
:1055F0005A6912F0400F0AD01A69636A1A70636A16
:1056000001336362638D9BB2013B9BB26385638D03
:105610009BB21BB1236C43F004032364236C13BBC4
:105620002A2D25D094F83D30DBB2282B29D0236BCE
:10563000222B01D0222D19D100232363202284F8AC
:105640003D2084F83E302046FBF722FA0EE0A36BA3
:10565000124A1A65A06BFEF770FB0028B4D0A06B4D
:10566000036D9847B0E72046FFF79AFE03B030BDC0
:1056700000232363282384F83D302046FBF708FAF3
:10568000D0E7074BE36200232363202284F83D2008
:1056900084F83E302046FFF796FBE7E7BD5200084E
:1056A0000000FFFFF8B5044602685568C66A90F826
:1056B0003E30DBB290F83D10C8B2102B13D0402B17
:1056C00011D0236C002B7AD05369002113F0020F04
:1056D00078D015F4007F75D0236C03B19169204612
:1056E000FFF744FBF8BDD2F818C0516911F001076B
:1056F00005D1B6F52A0FF5D0B6F12A4FF2D017B181
:1057000015F4007F29D111F0080F02D015F4007FA5
:105710002AD111F0020F02D015F4007F28D11CF01D
:10572000040F31D0526812F4006FDBD111F0800FFA
:1057300005D015F4806F02D011F0040F1CD011F0C9
:10574000040FCFD015F4007FCCD0212818D0402BE7
:10575000C8D12046FFF7D2FBC4E72046FFF780F907
:105760002046FEF7B7FFBDE72046FFF707F8B9E789
:105770002046FFF719F8B5E72046FFF71EFCB1E712
:105780002046FFF76CFBADE7536813F4006FA9D117
:1057900011F0400F05D015F4806F02D011F0040F06
:1057A00009D011F0040F9DD015F4007F9AD0204647
:1057B000FFF76EFC96E72046FFF704FD92E791693C
:1057C000536983E713F0100F02D015F4007F18D14E
:1057D00021281AD0292818D013F0400F05D015F42D
:1057E000806F02D013F0040F28D013F0040F3FF4A1
:1057F00079AF15F4007F3FF475AF2046FFF7FCF852
:1058000070E72046FFF788FE6CE713F0800F05D0A5
:1058100015F4806F02D013F0040F0BD013F0040FB7
:105820003FF460AF15F4007F3FF45CAF2046FFF714
:10583000D3F857E72046FFF74CFA53E72046FFF727
:105840006EFA4FE7F8B5044603685D695F6890F843
:105850003E20D2B2C5F3002615F4807F08D0C7F3EE
:10586000002617F4807F03D06FF480715961012600
:1058700015F4007F08D017F4807F05D046F00206AB
:1058800023686FF40071596115F4806F19D017F413
:10589000807F16D0638D99B294F83D30DBB2206BD7
:1058A000202A1BD023686FF48061596146F00406FA
:1058B000102A01D0402A04D12268136843F40073EF
:1058C000136015F4006F17D017F4807F14D046F0E2
:1058D000080623686FF400625A610EE00029E1D1E6
:1058E000212B05D0292B03D0282BDBD12128D9D17E
:1058F0002046FFF769FAE4E72EB1236C33432364B3
:105900002046FFF74DFDF8BD026802F10C0353E895
:10591000003F23F490730C3242E800310029F3D1A8
:10592000026802F1140353E8003F23F0010314322C
:1059300042E800310029F3D1036B012B05D020236D
:1059400080F83E30002303637047026802F10C03C5
:1059500053E8003F23F010030C3242E800310029E5
:10596000F3D1ECE790F83D30DBB2212B01D00220DF
:1059700070478368B3F5805F17D0036A5A1C0262D0
:105980001A7803685A60C38C9BB2013B9BB2C384F4
:105990004BB90268D36823F08003D3600268D368F0
:1059A00043F04003D360002070470369002BE4D12B
:1059B000036A1B880268C3F308035360036A023357
:1059C0000362E0E710B504460268136923F440530C
:1059D000C1680B431361836802691A4343691A4320
:1059E000C3691A430168CB6823F4164323F00C0300
:1059F0001343CB600268536923F4407381690B43FE
:105A000053610368314A934206D002F580629342A3
:105A100002D0FEF723F801E0FEF730F8E369B3F5B2
:105A2000004F29D00021031849411B1841F1000102
:105A3000C90041EA5371DB00181863684FEA83021A
:105A40004FEA937341F10001FAF7E8FF204AA2FB05
:105A500000314909642303FB11031B013233A2FB0C
:105A600003235B0903F0F00202EB011203F00F03C2
:105A7000216813448B6010BD0023021843EB03011F
:105A8000121841F10001C90041EA5271D200101808
:105A900041F10001626892185B41FAF7BFFF0C4ABE
:105AA000A2FB00314909642303FB1103DB003233FD
:105AB000A2FB03235B095A0002F4F87202EB011205
:105AC00003F00703216813448B60D4E70010014002
:105AD0001F85EB5158B310B5044690F83D300BB319
